:020000020000FC
:101E00008A02F894C0EAD0E01E012E01442755272B
:101E100066270FEF1FEF20E2E4D0C0E6D0E008E134
:101E200015E923E1DED0C65209E209930FEC0993CC
:101E3000C45F0BE309930FEC099307E409930FECDC
:101E40000993EE27FF27B2D000E41127380112D002
:101E50007894FFCFF894A89500E004BF01B508611D
:101E600001BD00E001BDEE27FF27C0EAD0E0A0D011
:101E70007894C6C0B898BA9AC09AC29A08EA0DB9BE
:101E800000E70EB9089571E0B89806B30570043004
:101E9000E1F308EF00FD08EA0DB900EF0EB918955F
:101EA000713071F40FB1102F0695023459F5812F5E
:101EB00080FF992772E07F98B89A0EE70EB91895BF
:101EC000723031F59238B9F4F89400EF0EB900276A
:101ED0000DB9BA98B898C298C098F301593018F063
:101EE00065D0B096B096FE3118F413E06ED0F9CFFD
:101EF0000CE001BDFFCF80FD22C073E0B89800E781
:101F00000EB91895B89808EA0DB900E70EB91895FA
:101F1000733099F40FB1903011F4902FCBCF9038EB
:101F200049F6E2014A3040F4493029F0483011F0D6
:101F300009932E01600F4395BDCF753061F576E0B2
:101F400010E0913819F5F30112E04930E1F413E0A3
:101F50006030C9F415E0072D0E31A8F453955031C7
:101F600019F0583031F00CC021D0B096B0963F0136
:101F700058E0C0E6D0E02E010FEF1FEF20E231D095
:101F800011E0120101C02101442766271FB9B89A48
:101F900000E70EB91895763029F477E0B8980EE787
:101FA0000EB918950FB100FDADCFC9CFC0E6D0E096
:101FB00013E00BD000E40990199011E006D0EE5F19
:101FC0000250C9F7E05415E000C037B730FDFDCF2F
:101FD0003CB331FDFDCF17BFE89537B73123E9F7A3
:0C1FE0000895099319932A95E1F70895DC
:00000001FF
