:020000020000FC
:101E00008A01F894C0EAD0E01E012E01442755272C
:101E100066270FEF1FEF20E2D5D0C0E6D0E008E143
:101E200015E923E1CFD0C85106E209930FEC0993DD
:101E300002E309930FEC0993EE27FF27A8D000E4F3
:101E40001127380102D07894FFCFB898BA9AC09A77
:101E5000C29A08EA0DB900E70EB9089571E0B89882
:101E600006B305700430E1F308EF00FD08EA0DB990
:101E700000EF0EB91895713071F40FB1102F06955F
:101E8000023471F5812F80FF992772E07F98B89A0C
:101E90000EE70EB91895723049F59238D1F4F894DE
:101EA00000EF0EB900270DB9BA98B898C298C0983B
:101EB000F301593018F06BD0B096B096FE3118F49B
:101EC00013E074D0F9CFEE27FF27C0EAD0E061D04D
:101ED000FFCF80FD22C073E0B89800E70EB91895D7
:101EE000B89808EA0DB900E70EB91895733099F45F
:101EF0000FB1903011F4902FC8CF903831F6E20135
:101F00004A3040F4493029F0483011F009932E014D
:101F1000600F4395BACF753079F576E010E09138CF
:101F200031F5F30112E04930F9F413E06030E1F4E7
:101F300015E0072D0E31C0F410E05395503119F023
:101F4000583039F00FC023D0B096B0963F0158E01A
:101F500011E0C0E6D0E02E01312F0FEF1FEF20E29D
:101F600031D0132F120101C02101442766271FB968
:101F7000B89A00E70EB91895763029F477E0B8984A
:101F80000EE70EB918950FB100FDAACFC6CFC0E677
:101F9000D0E013E00BD000E40990199011E006D0D6
:101FA000EE5F0250C9F7E05415E000C037B730FDCE
:101FB000FDCF3CB331FDFDCF17BFE89537B73123D7
:0E1FC000E9F70895099319932A95E1F708951A
:00000001FF
