:1000000034C0D6C757C001C955C054C05AC7B5C8B7
:10001000FCC750C04FC04EC04DC09DC74BC04AC06A
:1000200049C048C047C000003A00370000003B000C
:10003000380000000000000000000003000400057C
:100040000000000039003600010101010101010139
:100050000202020202020202010204081020408091
:100060000102040810204080370C11241FBECFE588
:10007000D2E0DEBFCDBF10E0A0E6B0E0EAE3F9E1F8
:1000800002C005900D92A039B107D9F721E0A0E98F
:10009000B0E001C01D92A233B207E1F710E0C5E362
:1000A000D0E003C02197FE0140DCC433D107D1F773
:1000B00024D941CCA5CFFC011382128208959091DE
:1000C00018019923A1F090911701903240F5909179
:1000D0001601E92FF0E0E057FF4F808381E0890FA0
:1000E000809316018093170181E090E0089520919C
:1000F0001501909114012F5F921B9F7081F09091D8
:1001000015019F5F9F70209114019217E1F3E92F71
:10011000F0E0E056FF4F808390931501E5CF90E02B
:1001200080E008953FB7F8948091BD009091BE00A3
:10013000A091BF00B091C00022B708B601FE05C073
:100140002F3F19F00196A11DB11D3FBFBA2FA92F56
:10015000982F8827BC01CD01620F711D811D911D53
:1001600043E0660F771F881F991F4A95D1F70895BE
:10017000CF92DF92EF92FF92CF93DF936B017C01DE
:10018000D1DFEB01CFDF6C1B7D0B683E7340A0F02D
:10019000C114D104E104F10439F4DF91CF91FF904F
:1001A000EF90DF90CF90089581E0C81AD108E10860
:1001B000F108C851DC4FE6CFC114D104E104F104C9
:1001C00009F7EBCF9091130180911201891B8F7079
:1001D000089580911701882339F020911601821328
:1001E00018C08FEF9FEF0895EDDF8823D1F3909132
:1001F0001301809112019817E1F3E0911301EF5F71
:10020000EF70E0931301F0E0E057FF4F808190E042
:100210000895E22FF0E0E057FF4F808190E02F5FDC
:10022000209316010895FC01138212820895FC01A7
:1002300083A182FD03C083A185FF07C083A180FD48
:1002400006C083A182958170089580E0089581E0C1
:100250000895DC0192969C91929712968C91129738
:1002600013962C9113979F70821B8F70891740F4FF
:10027000ED91FC9111970480F581E02DCD01099459
:1002800012968C91129792969C919297891B8F70DF
:1002900012968C930895BF92CF92DF92EF92FF92C5
:1002A0000F931F93CF93DF93EC01162F89A188231F
:1002B00009F477C09A818B81981373C08AA1811148
:1002C00070C0FE0130E020E041E050E060EF71E1FD
:1002D00082E3E82E90EEB92E01E28BA19CA1F22ED2
:1002E000892790E0022E02C0959587950A94E2F73F
:1002F00080FF49C0243080F08A818F5F8F709B819E
:10030000891709F44EC0CA80CC0EDD2ED11CD6014F
:100310001496BC928A830AA38BA190E00F2C02C092
:10032000959587950A94E2F780FD12C08A818F5FC8
:100330008F709B81891791F1CA80CC0EDD2ED11C64
:10034000D60114966C938A838AA1813229F5EAA298
:1003500097A18A818F5F8F70DB808D15F9F0CA803D
:10036000CC0EDD2ED11CD60114969C938A831AA242
:100370009CA18BA16A0101C0CC0CFA94EAF78927F1
:100380008C2189278CA32F5F3F4F31962830310570
:1003900009F0A3CF19A205C07AA3DACFCE0159DFA5
:1003A0001AA289A181110CC08A818F5F8F709B81F5
:1003B000891749F1EA81EC0FFD2FF11D14838A831F
:1003C0008AA1823309F48DC018F5813109F451C036
:1003D000813209F463C0811121C081E1103F09F429
:1003E00098C081E51B3A09F494C081E2103E09F4FB
:1003F00090C081E4113E09F48CC0123111F58BA13B
:1004000082608BA30BC081E089A3CE0122DFD8CF0D
:100410008734A9F090F4813408F079C089A1811162
:1004200002C08BA18CA3DF91CF911F910F91FF9000
:10043000EF90DF90CF90BF900895813579F71AA2A1
:10044000EDCF193519F48BA18860DBCF143119F485
:100450008BA18460D6CF113119F48BA18160D1CFEB
:100460001438E1F6CE01E3DE8823C1F281E08EA3E9
:10047000D5CF1AA2123119F48BA18D7FC2CF1935B5
:1004800019F48BA1877FBDCF143119F48BA18B7F19
:10049000B8CF113119F68BA18E7FB3CF82E3103F15
:1004A000C1F11AA2143119F48BA18062AACF1F31B5
:1004B00019F48BA18064A5CF173219F48BA1806841
:1004C000A0CF113119F48BA180619BCF113709F0B6
:1004D000A5CFCE01ACDE882309F4A0CF81E08DA3A7
:1004E0009DCF1AA2143119F48BA18F7D8ACF1F31B1
:1004F00019F48BA18F7B85CF173219F48BA18F77DD
:1005000080CF113109F08ACF8BA18F7E7ACF8AA15B
:100510008F5F8AA383CFFC0182818F5F8770938175
:10052000981741F0A2819485AE0FBF2FB11D14968C
:100530009C9382830895FC0182818F5F8F709381E9
:10054000981741F0A2819489AE0FBF2FB11D149668
:100550009C9382830895FC011382128212A213A23B
:1005600011A216A215A20895FC0192818381981709
:1005700059F0A381AE0FBF2FB11D14968C919381BA
:100580009F5F9F709383089580E00895FC0192819E
:100590008381981759F0A381AE0FBF2FB11D149618
:1005A0008C9193819F5F97709383089580E0089565
:1005B000FF920F931F93CF93DF9300D01F92CDB77D
:1005C000DEB78091B1009091B20087309105B1F40F
:1005D0008091D1008131E1F59091D4008091D500D6
:1005E0009817B1F182ED90E0BFDF0F900F900F9060
:1005F000DF91CF911F910F91FF9061CD88309105D0
:1006000019F48091B000F1CF8831910519F58091EE
:10061000F200EBCF80911B0190911C01891B877028
:100620008330B0F089E191E0B1DF182F8983887CB5
:10063000883071F489E191E0A9DFF82E89E191E039
:10064000A5DF082F812F3BDD8F2D39DD802FCDCF0A
:1006500080E0CBCF8197F1F20F900F900F90DF9158
:10066000CF911F910F91FF90089587FF06C08F775C
:10067000833018F08730D0F48F5F90E0FC01E85AA7
:10068000FF4F2491FC01E85BFF4FE491EE23A1F0C2
:10069000F0E0EE0FFF1FEE5BFF4FA591B491EC91E0
:1006A000E22381E090E051F480E008958B3010F473
:1006B0008B5FE3CF80E0E1CF80E090E00895CF93BF
:1006C000DF93EC018881D1DF29813A812115310541
:1006D00021F0215031093A83298329813A8120363A
:1006E0003105F8F4232B91F481111EC08B818130E8
:1006F00079F482E08B8384E690E09A838983EE81AB
:10070000FF81309771F0DF91CF91099481110CC076
:100710008B81811106C081E08B8384E690E09A830F
:100720008983DF91CF9108958130D9F78B81813012
:1007300041F41B8284E690E09A838983EC81FD81F9
:10074000E0CF823071F71B82E8CF90E0FC01EE5CD5
:10075000FF4F3491FC01E85AFF4F2491FC01E85B04
:10076000FF4FE491EE23C1F0332329F03330A9F495
:1007700087B58F7787BDF0E0EE0FFF1FE45DFF4F79
:10078000A591B4918FB7611112C0F8949C91E22F9A
:10079000E095E923EC938FBF0895343019F487B5C1
:1007A0008F7DE8CF353039F787B5877FE3CFF89471
:1007B000EC91E22BEFCF61E085E0C7DF1092010101
:1007C00060E080E0C2DF64EF71E080E090E0D0CCD8
:1007D0008F929F92AF92BF92CF92DF92EF92FF9251
:1007E00060E085E0B2DF8FB7F8948090B900909018
:1007F000BA00A090BB00B090BC008FBFC12CD12C20
:10080000760186E032DF892B81F48FB7F894C090AF
:10081000B900D090BA00E090BB00F090BC008FBF50
:10082000C818D908EA08FB08ECCF84E6C81AD10832
:10083000E108F10881E9C81681E0D806E104F10475
:1008400048F0FF90EF90DF90CF90BF90AF909F90D7
:100850008F90B1CF64EF71E080E090E089DC81E0BF
:100860008093010161E080E0FF90EF90DF90CF90F6
:10087000BF90AF909F908F9068CF809101018111C0
:1008800001C0A6CF98CF80910101882359F060E084
:1008900081E05BDF6CE271E080E090E069DC61E0C8
:1008A00081E053CF0895CF93DF9390E0FC01E85AA5
:1008B000FF4F2491885B9F4FFC0184918823C9F0EE
:1008C00090E0880F991FFC01EA5DFF4FA591B4915C
:1008D000FC01E45DFF4FC591D49161110DC09FB73C
:1008E000F8948C91209582238C93888128232883E7
:1008F0009FBFDF91CF910895623051F49FB7F89474
:100900003C91822F809583238C93E8812E2BEFCF0F
:100910008FB7F894EC912E2B2C938FBFEACFCF9307
:10092000DF93EC0160E08BE0BEDF60E082E0BBDFE4
:100930001C8A1D8A1E8A1B8EDF91CF910895CF934A
:10094000DF93EC01ECDF89A1811102C0CE0181DCD3
:100950001AA2DF91CF910895CF92DF92EF92FF928A
:100960008091ED00811188C08FB7F894C090B900D4
:10097000D090BA00E090BB00F090BC008FBF809197
:10098000E9009091EA00A091EB00B091EC00C296D2
:10099000A11DB11DC816D906EA06FB0618F082EDA6
:1009A00090E0CDDFC092E900D092EA00E092EB0047
:1009B000F092EC008BE059DE9091E8009930F0F471
:1009C000913028F1882389F0292F2150330BA90178
:1009D00021E030E0B90102C0660F771F4A95E2F7C7
:1009E0002091E600262B2093E6002091E700820F5D
:1009F0008093E7009F5F9093E80004C0993069F00E
:100A00009A3091F0FF90EF90DF90CF900895811190
:100A1000F9CF81E08093E800F5CF9091E700890F4E
:100A20008093E7008AE0F6CF8091F2006091E600C3
:100A3000813021F46E3F31F46093F20082ED90E05A
:100A40002ADC13C06A3FD1F79091F0009230A1F7F1
:100A50009091EF008093F2009093EE001092EF00DF
:100A60008093F00083E08093F1001092E8001092F0
:100A7000E7001092E600C6CF8091F1008111C2CF4D
:100A80008091E800883079F160F08930B9F18A30DE
:100A900009F0B8CF82ED90E0FF90EF90DF90CF901B
:100AA0004ECF8091EE0060E080FF17C08BE0FBDE50
:100AB00061E08BE04ADE9091EE008091E700890FC3
:100AC0008093E7008091EE0090E095958795809364
:100AD000EE008091E8008F5F9DCF8BE036DE61E015
:100AE0008BE0E1DEE8CF8091E70060E080FF07C0A7
:100AF0008BE02BDE61E08BE0D6DEEBCF60E08BE0BD
:100B0000D2DE61E08BE021DEE4CFCF93DF93EC0116
:100B100060E08DE0C8DE60E08EE0C5DE1C861D86EC
:100B20001E861B8ADF91CF91089589E191E0EDDF68
:100B3000E9E1F1E0168A178A13821282089582EDA4
:100B400090E009DDF2DF10923101809101018823EC
:100B5000B1F060E080E0F9DD64EF71E080E090E00A
:100B600007DB61E080E0F1DD61E089E09CDE60E0D0
:100B700089E0EBDD84E08093CC008093D100089580
:100B8000CF92DF92EF92FF9280912C01811188C069
:100B90008FB7F894C090B900D090BA00E090BB0035
:100BA000F090BC008FBF8091280190912901A09105
:100BB0002A01B0912B01C296A11DB11DC816D906FC
:100BC000EA06FB0618F089E191E09FDFC092280158
:100BD000D0922901E0922A01F0922B018DE045DDAF
:100BE000909127019930F0F4913028F1882389F011
:100BF000292F2150330BA90121E030E0B90102C0B7
:100C0000660F771F4A95E2F720912501262B209346
:100C1000250120912601820F809326019F5F9093EA
:100C2000270104C0993069F09A3091F0FF90EF905D
:100C3000DF90CF9008958111F9CF81E08093270153
:100C4000F5CF90912601890F809326018AE0F6CF97
:100C50008091310160912501813021F46E3F31F4A2
:100C60006093310189E191E056DC13C06A3FD1F70E
:100C700090912F019230A1F790912E018093310134
:100C800090932D0110922E0180932F0183E0809389
:100C90003001109227011092260110922501C6CF33
:100CA000809130018111C2CF80912701883079F184
:100CB00060F08930B9F18A3009F0B8CF89E191E06C
:100CC000FF90EF90DF90CF9020CF80912D0160E0DA
:100CD00080FF17C08DE0E7DD61E08DE036DD9091AB
:100CE0002D0180912601890F8093260180912D018D
:100CF00090E09595879580932D01809127018F5FD6
:100D00009DCF8DE022DD61E08DE0CDDDE8CF8091EB
:100D1000260160E080FF07C08DE017DD61E08DE017
:100D2000C2DDEBCF60E08DE0BEDD61E08DE00DDD8A
:100D3000E4CFCF93DF931092B2001092B1001092E3
:100D4000B4001092B3001092B6001092B500D0E03B
:100D5000C0E0809117018823A1F090911601891BB2
:100D6000990B892B99F0C330D10574F432DAFE0166
:100D7000EE0FFF1FEF54FF4F992791838083219639
:100D8000E8CF20DA90E0EDCF24DAE3CFC230D1050E
:100D900049F48091B1009091B2004A9759F4DF91E3
:100DA000CF9108952397D9F78091B1009091B20027
:100DB0004A97A9F78091B1009091B20081309105D6
:100DC00051F42091B3003091B4002115310571F038
:100DD00021303105C1F082309105E9F42091B30052
:100DE0003091B400232BB9F4AADE01C0E4DC809179
:100DF000B1009091B2008830910589F58091B300DF
:100E00008093B000CCCFD7DC68EE73E080E090E058
:100E1000AFD9DEDCECCF8330910541F42091B300F3
:100E20003091B400232B11F42EDDE1CF0597F9F6B4
:100E3000C091B300D091B40061E089E034DD60E09E
:100E40001C161D0624F4CF3FD10524F061E089E093
:100E50007CDCCDCF87B5806487BDCDBDC8CF89315F
:100E6000910579F49091B30081E08093F200909322
:100E7000EE001092EF008093F00083E08093F10089
:100E80008ECF8A31910569F48091B5009091B300BD
:100E900021E02093F2009093EE008093EF0082E037
:100EA000EACF8F38910509F07ACF8091B300909105
:100EB000B400C19709F073CFE2E0FEE1DF91CF917A
:100EC00009941F920F920FB60F9211242F933F9304
:100ED0008F939F93AF93BF938091B9009091BA0085
:100EE000A091BB00B091BC003091B80026E0230F68
:100EF0002D3768F129E8230F0396A11DB11D20931A
:100F0000B8008093B9009093BA00A093BB00B0934F
:100F1000BC008091BD009091BE00A091BF00B09137
:100F2000C0000196A11DB11D8093BD009093BE002D
:100F3000A093BF00B093C000BF91AF919F918F91DC
:100F40003F912F910F900FBE0F901F901895029612
:100F5000A11DB11DD4CF1F920F920FB60F92112475
:100F60002F933F934F935F936F937F938F939F93B1
:100F7000AF93BF93EF93FF938091C8009091C90006
:100F8000892B29F0E091C800F091C9000995FF91E3
:100F9000EF91BF91AF919F918F917F916F915F91F1
:100FA0004F913F912F910F900FBE0F901F9018956A
:100FB0001F920F920FB60F9211242F933F934F93CE
:100FC0005F936F937F938F939F93AF93BF93EF93B1
:100FD000FF938091C6009091C700892B29F0E09182
:100FE000C600F091C7000995FF91EF91BF91AF91B5
:100FF0009F918F917F916F915F914F913F912F9131
:101000000F900FBE0F901F9018951F920F920FB662
:101010000F9211240F931F932F933F934F935F933E
:101020006F937F938F939F93AF93BF93CF93EF93E0
:10103000FF938091B700823009F476C0C8F488230A
:1010400099F1813009F456C0FF91EF91CF91BF9192
:10105000AF919F918F917F916F915F914F913F9150
:101060002F911F910F910F900FBE0F901F90189509
:10107000843009F45FC0B8F1853031F784E08093A3
:10108000B7009FB1809112018F5F8F702091130183
:10109000281709F470C080931201E0911201F0E06A
:1010A000E057FF4F908319C08FB1882331F08FB183
:1010B00086959091C100891319C0789B12C0E09168
:1010C000C400F091C500309729F0809115018093FC
:1010D0001401099581E08093B7001FB8B89A8EE794
:1010E00021C084E0F8CF8FB1882321F0B89888EA36
:1010F0008DB917C080911401909115019817B1F323
:10110000809114018F5F8F7080931401E09114011E
:10111000F0E0E056FF4F80818FB982E08093B70006
:10112000B89A80E78EB990CF83E08093B700B898E3
:101130001FB8D5CF85E08093B700B89880E78EB907
:101140000091C2001091C3000115110509F47CCF74
:10115000C0911201809113018C1709F475CF8EB1E3
:101160008E7AE9F3759B70CF2DD890E0F801099540
:10117000C093130169CFB898B2CF1F920F920FB6E8
:101180000F9211240F931F932F933F934F935F93CD
:101190006F937F938F939F93AF93BF93CF93EF936F
:1011A000FF930091C2001091C3000115110561F079
:1011B000C0911201809113018C1731F003D890E097
:1011C000F8010995C09313011092B700B898B29B2B
:1011D0001AC0B09BFCCF88EA8DB980EF8EB9FF9121
:1011E000EF91CF91BF91AF919F918F917F916F912F
:1011F0005F914F913F912F911F910F910F900FBED3
:101200000F901F90189588EFE7CF1F920F920FB69F
:101210000F9211242F933F934F935F936F937F937C
:101220008F939F93AF93BF93EF93FF9315BC1EBC17
:101230008091F100882331F18091F1008330A9F48D
:1012400060E082E082DA61E082E02DDB60E08BE04A
:101250007CDA61E08BE027DB81E08093ED00809118
:10126000F10081508093F1000DC08091F100813038
:10127000B1F760E082E017DB1092F1001092E80015
:101280001092E70080913001882331F18091300184
:101290008330A9F460E08EE058DA61E08EE003DB91
:1012A00060E08DE052DA61E08DE0FDDA81E080936C
:1012B0002C01809130018150809330010DC08091CC
:1012C00030018130B1F760E08EE0EDDA109230014C
:1012D0001092270110922601FF91EF91BF91AF91DB
:1012E0009F918F917F916F915F914F913F912F913E
:1012F0000F900FBE0F901F90189593E093BF7894B6
:1013000089B7826089BF90BF81E087BD86BD87E0D5
:101310008FBD86E886B9F89410BE17BC16BC15BC04
:101320001EBC19BC1CBC85E48FBD84E68DBD89B78D
:10133000806489BF78941092160110921701109260
:1013400018011092130110921201109214011092C0
:10135000150182E48093C1001092C5001092C40070
:101360001092C3001092C200C29AC09ABA9AB8985A
:1013700088EA8DB980EF8EB989E996E09093C30031
:101380008093C20088ED92E09093C5008093C400E2
:101390008DE394E090930F0180930E0190931101DF
:1013A0008093100183E494E09093070180930601F9
:1013B0008FE995E0909309018093080160E086E051
:1013C00072DA61E085E06FDA61E085E0BED961E064
:1013D00089E069DA61E089E066DA60E089E0B5D940
:1013E00061E080E060DA60E080E0AFD961E081E058
:1013F0005ADA61E081E0A9D98FB7F8942CEA34E099
:101400003093C9002093C8008FBF85B78C7F82605E
:1014100085BF8BB780688BBF8FB7F89420EC35E021
:101420003093C7002093C6008FBF85B78C7F826042
:1014300085BF8BB780648BBF84E0F82EC1E094EF4A
:10144000A92E23E0E22E0FEF10E03CE3932E43EFB2
:10145000B42ECC24CA9453E0D52E8AE091E02FD943
:1014600082E091E02CD9E091CC00EE23C9F180918B
:101470000101811135C01092CC001092CB00D092A6
:101480006100C092600051DB10923101E091D10007
:101490008091D0008F5F8093D00070900101EE2387
:1014A00009F425C1711023C11092D1001092CF0010
:1014B00010936300009362008091F700882319F075
:1014C0003EDB1092F7008091F800882319F0DBD9F9
:1014D0001092F8006AE070E080E090E049D6BDCF5D
:1014E0008091CB00882331F1809160009091610060
:1014F0000097D9F4D091CA001092CB0080903101AE
:1015000081E0881619F2EC3020F5F0E0E757F54F4E
:10151000099412C021C039C0E8C056C06EC07DC059
:1015200093C09FC0BAC0D3C0DCC001979093610044
:1015300080936000DE2FE2CF80910101882349F083
:10154000C093CB001093610000936000F092CA003A
:10155000D1E0D093CC009ACF90911B0180911C01D7
:101560009817B9F389E191E011D88A3A51F4C09300
:10157000CB001093610000936000F092CA00D2E0AB
:10158000E8CF8C3F31F7DFEFE4CF90911B018091E2
:101590001C019817F1F289E191E0F8D78111D9CFB8
:1015A000C0933101B0922D0110922E01C0932F01F2
:1015B000E0923001C093CB00109361000093600073
:1015C000F092CA00D8E0C5CF10921C0110921B0106
:1015D000C09331018FEF80932D0110922E01C093A3
:1015E0002F01E0923001C093CB0010936100009373
:1015F00060008093CA00D5E0ACCF8AEF8812C3CFD9
:1016000089E191E0C3D7C093CB00109361000093B0
:101610006000F092CA00D6E09CCF90911B018091AF
:101620001C01981709F495CF89E191E0AFD78A3A68
:1016300009F0A9CFC093CB00109361000093600024
:10164000F092CA00D7E085CF90911B0180911C01D8
:10165000981709F47ECF89E191E098D7811193CF53
:101660009FCF89E191E092D78AEF881611F0D3E0FD
:1016700070CFC093310190922D0110922E01C09332
:101680002F01E0923001C093CB00109361000093D2
:101690006000F092CA00D9E05CCF89E191E076D792
:1016A0008AEF8812E4CFC0933101A0922D011092ED
:1016B0002E01C0932F01E0923001C093CB00109314
:1016C000610000936000F092CA00DAE042CF89E145
:1016D00091E05CD78AEF8812CACF1092CB00DBE092
:1016E00038CF1092CB00DCE034CFD4E032CF809101
:1016F000CF00882369F18091620090916300009788
:1017000011F5D091CE001092CF008090F20081E0D0
:10171000881609F444C0E13108F03FC0F0E0EE560D
:10172000F44F099417C022C038C037C046C05DC00E
:1017300034C033C032C031C030C02FC02EC05CC0F6
:1017400070C02BC08AC001979093630080936200A1
:10175000DE2FDBCF772009F1C093CF001093630019
:1017600000936200F092CE00D1E017C09091D400B7
:101770008091D500981789F082ED90E0F5D68A3AED
:10178000C1F482E08093CD00C093CF00109363003A
:1017900000936200F092CE00DDE0D093D10077207C
:1017A00009F48ACE86E061D7892B09F085CE03D86B
:1017B00083CE8C3F91F7DFEFF0CF82ED90E0CBD678
:1017C000C093F2008FEF8093EE001092EF00C09371
:1017D000F000E092F100C093CF00109363000093FB
:1017E00062008093CE00D5E0D8CF8AEF8812E3CF95
:1017F00082ED90E0B9D6B0CFC093F2008DEE809329
:10180000EE001092EF00C093F000E092F100C09360
:10181000CF001093630000936200F092CE00DEE0F0
:10182000BCCF82ED90E0A0D68AEF8812C4CF809121
:10183000CD00C093F2008093EE001092EF00C093B1
:10184000F000E092F100C093CF001093630000938A
:101850006200F092CE00D0E1A0CF82ED90E084D67D
:101860008AEF8812A8CF1092CF00D1E196CFCF9304
:10187000DF93EAE0F1E01282118213821582148272
:101880001782168284E0808362E00DD8E2E0F1E006
:1018900012821182138215821482178216828CE0C2
:1018A000808362E000D8C2EDD0E08CE790E09983BD
:1018B00088831A821B821C8A1D8A1E8A1F8A188EA0
:1018C000198E1A8E1B8E1E8E1F8E18A2CE0137D82F
:1018D0001E8E1F8ECE013FD688E890E099838883C4
:1018E00019A21AA21BA21CA21DA21EA288E0E4E655
:1018F000F0E0A9EFB0E001900D928A95E1F7E9E1FF
:10190000F1E080E790E09183808312821382148655
:10191000158616861786108A118A128A138A168AE5
:10192000178A108EDF91CF9100C9EE0FFF1F05902F
:0A193000F491E02D0994F894FFCF24
:10193A00FF03FF001112145911141F2700000000A1
:10194A008505C6025B008B02000000008F04B4020A
:10195A0013019B02000000009F04B402AB024B017A
:020000020000FC
:101E00008A01F894C0EAD0E01E012E01442755272C
:101E100066270FEF1FEF20E2D5D0C0E6D0E008E143
:101E200015E923E1CFD0C85106E209930FEC0993DD
:101E300002E309930FEC0993EE27FF27A8D000E4F3
:101E40001127380102D07894FFCFB898BA9AC09A77
:101E5000C29A08EA0DB900E70EB9089571E0B89882
:101E600006B305700430E1F308EF00FD08EA0DB990
:101E700000EF0EB91895713071F40FB1102F06955F
:101E8000023471F5812F80FF992772E07F98B89A0C
:101E90000EE70EB91895723049F59238D1F4F894DE
:101EA00000EF0EB900270DB9BA98B898C298C0983B
:101EB000F301593018F06BD0B096B096FE3118F49B
:101EC00013E074D0F9CFEE27FF27C0EAD0E061D04D
:101ED000FFCF80FD22C073E0B89800E70EB91895D7
:101EE000B89808EA0DB900E70EB91895733099F45F
:101EF0000FB1903011F4902FC8CF903831F6E20135
:101F00004A3040F4493029F0483011F009932E014D
:101F1000600F4395BACF753079F576E010E09138CF
:101F200031F5F30112E04930F9F413E06030E1F4E7
:101F300015E0072D0E31C0F410E05395503119F023
:101F4000583039F00FC023D0B096B0963F0158E01A
:101F500011E0C0E6D0E02E01312F0FEF1FEF20E29D
:101F600031D0132F120101C02101442766271FB968
:101F7000B89A00E70EB91895763029F477E0B8984A
:101F80000EE70EB918950FB100FDAACFC6CFC0E677
:101F9000D0E013E00BD000E40990199011E006D0D6
:101FA000EE5F0250C9F7E05415E000C037B730FDCE
:101FB000FDCF3CB331FDFDCF17BFE89537B73123D7
:0E1FC000E9F70895099319932A95E1F708951A
:00000001FF
