:1000000055C0D9C878C004C976C075C05DC8F6C9E6
:100010004FC971C070C06FC06EC0A0C86CC06BC04B
:100020006AC069C068C07800747270717B007977AB
:100030007573100100003C2C003A11020000002EE4
:10004000201F12030000302F2113050400003D3152
:100050002215140600003332242316070000003452
:10006000251708090000352618190B0A0000363735
:1000700027281A0C00000029001B0D00001E392B38
:100080001C001D0000002D000000000F00005D009E
:100090005C5B0000006368626166606E5A7A6A6742
:1000A0006964657D000000007600D20C11241FBE3B
:1000B000CFE5D2E0DEBFCDBF11E0A0E6B0E0E6E9DB
:1000C000FAE102C005900D92AA30B107D9F721E0FC
:1000D000AAE0B1E001C01D92A73CB207E1F710E031
:1000E000C6E5D0E003C02197FE01CDDCC535D107C0
:1000F000D1F7D0D9CECC84CF9091C601913079F48C
:100100009091C501903258F4E091C501F0E0EC55B2
:10011000FE4F80838091C5018F5F8093C501089554
:100120008091C601811112C09091A3018091C501F7
:10013000981760F4E091A301F0E0EC55FE4F808148
:100140009091A3019F5F9093A30108958FEF08956D
:10015000FC0182818F5F8F709381981749F0A28193
:10016000AE0FBF2FB11D14966C93828381E008956A
:1001700081E081A380E00895CF92DF92EF92FF9219
:100180000F931F93CF93DF9320915301243031F0CD
:100190006A3A09F440C06C3F09F43DC0162FEC01E7
:1001A00089A1811143C08AA1823309F4F4C008F007
:1001B0006BC0813109F48EC0813209F4B3C0811162
:1001C0006AC081E1103F09F413C181E51B3A09F4CB
:1001D0000FC181E2103E09F40BC181E4113E09F424
:1001E00007C189A1811110C0103F70F48FEF810FFA
:1001F00060E0833838F4812F8150990BFC01EA5D6F
:10020000FF4F6491CE01A4DF123109F0FAC08BA137
:1002100082608BA340C0FC0167A7DF91CF911F9143
:100220000F91FF90EF90DF90CF9008959A818B818E
:100230009813B9CF8AA18111B6CF6E017E01F8E083
:10024000EF0EF11C01E08BA19CA18927802399F07E
:10025000F60167A18BA1802309F46068CE0178DFE5
:10026000882309F4A0CF2CA19BA1802F8095822305
:100270009023892B8CA3000FFFEFCF1ADF0AEC1419
:10028000FD0409F719A28FCF873409F4B3C048F4ED
:10029000813408F0ABC089A18111BFCF8BA18CA3A1
:1002A000BCCF8135C1F71AA2F6CF143119F48BA156
:1002B0008460AFCF113119F48BA18160AACF1438BB
:1002C00051F78BA1982F947231F3817121F381E062
:1002D0008EA3E1CF1AA21231B1F48BA18D7F8BA333
:1002E00089A18111D8CF8FEF810F60E0833838F476
:1002F000812F8150990BFC01EA5DFF4F649160688A
:10030000CE0126DFC8CF193519F48BA1877FE7CF3F
:10031000143119F48BA18B7FE2CF113109F78BA136
:100320008E7FDDCF82E3103F09F462C0123181F08D
:10033000193571F089A181110BC0EFEEE10F60E07A
:10034000ED3620F4F0E0E459FF4F6081CE0100DF8C
:100350001AA2143119F48BA180625BCF1F3119F4FA
:100360008BA1806456CF173219F48BA1806851CFCE
:10037000113119F48BA180614CCF113709F08BCF6B
:100380008BA1982F947209F486CF817109F483CFE1
:1003900081E08DA380CF1AA2123109F47CCF1935E8
:1003A00009F479CF89A181110CC0EFEEE10F60E073
:1003B000ED3620F4F0E0E459FF4F60816068CE0133
:1003C000C7DE143119F48BA18F7D23CF1F3119F4AF
:1003D0008BA18F7B1ECF173219F48BA18F7719CF8A
:1003E000113109F058CF8BA18F7E13CF8AA18F5F77
:1003F0008AA351CF89A1811156CF6EE7CE01A8DE25
:1004000052CF193509F051CF8BA1886002CFFC0182
:100410001382128215A208950895FC01138212829C
:100420000895FC01D59B0BC0DD9909C0BD98C59A04
:10043000BE98C69A148A158A168A138E0895BD9896
:10044000C598BE98C698F6CFFC01D59B0BC0DD9928
:1004500009C0BB98C39AD298DA9A148A158A168A68
:10046000138E0895BB98C398D298DA98F6CFCF939D
:10047000DF93EC01E9DF1AA2DF91CF910895CF93CA
:10048000DF93EC01E881F9810190F081E02D09957D
:100490001E8E1F8EE881F9810480F581E02DCE014A
:1004A000DF91CF910994CF93DF93EC01E881F9813B
:1004B0000190F081E02D09951E8E1F8EE881F98153
:1004C0000480F581E02DCE01DF91CF910994FC01EC
:1004D00092818381981759F0A381AE0FBF2FB11D70
:1004E00014968C9193819F5F9F709383089580E011
:1004F000089580911401833069F4809154019091A2
:100500005501892B39F080911301882351F08130F6
:1005100059F0089582E390E090935501809354013F
:100520000895E1E0FFE00994809312010895CF92CD
:10053000DF92EF92FF928091710181117DC08FB7A0
:10054000F894C0901A01D0901B01E0901C01F0902B
:100550001D018FBF80916D0190916E01A0916F017F
:10056000B0917001C296A11DB11DC816D906EA0648
:10057000FB0618F086E591E07ADFC0926D01D0921B
:100580006E01E0926F01F092700136B338702091E5
:100590006C012930C0F42130F8F080916A0190E0BC
:1005A0009595879531111EC080936A0191E03111B4
:1005B00001C090E080916B01890F80936B012F5FE8
:1005C00020936C0104C0293089F32A3069F0FF9030
:1005D000EF90DF90CF90089581E03111F8CF8093B4
:1005E0006C01F5CF8068E0CF8091760160916A015F
:1005F000813021F46E3F31F46093760186E591E01D
:10060000BBDD13C06A3FD1F7909174019230A1F71E
:10061000909173018093760190937201109273010F
:100620008093740183E08093750110926C011092A5
:100630006B0110926A01CBCF809175018111C7CFF8
:1006400080916C01883041F160F0893061F18A302D
:1006500009F0BDCF86E591E0FF90EF90DF90CF905D
:1006600006CF8091720180FF14C0BB98C39A90910D
:10067000720180916B01890F80936B0180917201EF
:1006800090E0959587958093720180916C018F5FC2
:10069000A6CFC398BB9AEBCF80916B0180FF03C0BC
:1006A000C398BB9AF2CFBB98C39AEFCF90915801F1
:1006B00080915901981731F086E591E008DF1CDD43
:1006C00081E0089580E018DD80E00895CF93DF9306
:1006D000D0E0C0E08091C601811112C09091C501A7
:1006E0008091A301981761F0C330D1053CF418DD67
:1006F000FE01E15FFE4F80832196ECCF11DDEACF52
:10070000C230D1059CF080910F018A3109F474C088
:10071000F0F4833009F452C060F48130D9F18230B2
:1007200009F444C08091600080930F01DF91CF9164
:100730000895883009F44CC0893109F44EC08530E1
:1007400089F78091100187FF41C0DE9AEBCF8F3887
:1007500009F46AC050F4803209F45EC0803411F7A5
:100760008091100180936000DDCF823909F46CC064
:10077000833909F4C8C08039A9F68091100190E04E
:1007800026E0880F991F2A95E1F790930C0180933A
:100790000B01C8CF90911001992329F0913011F6E7
:1007A00090938801BFCF80938901BCCF80911001C5
:1007B0008111B8CF81E080938701B4CF809110017F
:1007C0008111B0CF81E080938601ACCFDE98AACFB3
:1007D0008091100180930E01A5CF9091100181E0CE
:1007E000809376019093720110927301809374014B
:1007F00083E08093750196CF229709F493CF80917F
:1008000011019091100121E02093760190937201E3
:100810008093730182E0EACF8091100180936100A0
:1008200080E5809351017ECF80911001813309F0E2
:1008300079CF1092130180ED97E09093550180934A
:100840005401109214016ECF80911201813009F091
:1008500069CF80910B0190910C0181159E4108F4A4
:1008600061CF80910B0190910C018115904208F0AD
:1008700059CF80910B0190910C0180FD0AC08091AD
:10088000100180930A0180910B0190910C01019657
:100890007CCF80910A0120911001322F282F809166
:1008A0000B0190910C0107B600FCFDCFE199FECF42
:1008B000E0910B01F0910C01AF014F5F5F4F50933E
:1008C0000C0140930B0141E0090140935700E8956A
:1008D000112420910B0130910C012F733327232B0E
:1008E00009F020CFFC01E07C83E080935700E8957D
:1008F00007B600FCFDCF85E080935700E89507B66A
:1009000000FCFDCF0FCF1092120180911001809357
:10091000130180911301813019F4809313018BCF5F
:100920001092550110925401FDCED89AD098D898C3
:100930000895D09AD8980895CF93DF93EC018881D9
:10094000AAD229813A812115310521F0215031099E
:100950003A83298329813A8120363105F8F4232B03
:1009600091F481111EC08B81813079F482E08B83F8
:1009700084E690E09A838983EE81FF81309771F05D
:10098000DF91CF91099481110CC08B81811106C038
:1009900081E08B8384E690E09A838983DF91CF9115
:1009A00008958130D9F78B81813041F41B8284E630
:1009B00090E09A838983EC81FD81E0CF823071F7EA
:1009C0001B82E8CF80916200882311F084E00895B3
:1009D00083E008959F92AF92BF92CF92DF92EF9201
:1009E000FF920F931F93CF93DF93EC0180915101FE
:1009F000843309F0BFC08DA1811102C063FF96C08E
:100A0000EDA1EC0FFD2FF11D61A38DA18F5F8DA3D3
:100A10001DA1D8DF18138AC01A810B81D3DF101BE8
:100A20001F70181708F48EC0EEA1EC0FFD2FF11DFA
:100A3000848199A1892B807C09F084C0AEA0CEA0CE
:100A40009EA0EEA1EC0FFD2FF11D848199A18927B5
:100A5000877009F077C0A3942A2D2F70A22EAC0EB8
:100A6000BD2EB11CF5018481EEA1EC0FFD2FF11D0F
:100A7000248190E024FD9F6FEAA029A1F12C24FF9E
:100A800002C0FF24FA94E80EF91EC7019395811560
:100A9000924008F057C0C394C3942C2D2F70C22EDF
:100AA000CC0EDD2ED11CF6018481EEA1EC0FFD2FC2
:100AB000F11D248190E025FD9F6F0BA129A110E07D
:100AC00025FD1F6F080F191FC801939581159240CE
:100AD000C8F578DF843099F4E3E0E90DEF70EC0FAE
:100AE000FD2FF11D84819CA18F709F70890F98E06C
:100AF000980F903138F59CA1907F892B848399A120
:100B0000EEA18F2D85958595859580719F70892B98
:100B1000912F959595959072892BEC0FFD2FF11DD6
:100B20008483F501E482F60104831DA2DF91CF9155
:100B30001F910F91FF90EF90DF90CF90BF90AF90FB
:100B40009F9008958A818EA310E03CDF181768F704
:100B5000FE01E10FF11D91A18A818F5F8F702B81C2
:100B6000821731F0EA81EC0FFD2FF11D94838A8307
:100B70001F5FEBCF8A818F5F8F709B818917B1F2E6
:100B8000EA81EC0FFD2FF11D64838A83CFCFCF92D2
:100B9000DF92EF92FF928091450181117DC08FB766
:100BA000F894C0901A01D0901B01E0901C01F090C5
:100BB0001D018FBF8091410190914201A09143019D
:100BC000B0914401C296A11DB11DC816D906EA060E
:100BD000FB0618F08AE291E024DCC0924101D09239
:100BE0004201E0924301F092440136B33072209109
:100BF00040012930C0F42130F8F080913E0190E0AE
:100C00009595879531111EC080933E0191E0311179
:100C100001C090E080913F01890F80933F012F5FD9
:100C20002093400104C0293089F32A3069F0FF90F5
:100C3000EF90DF90CF90089581E03111F8CF80934D
:100C40004001F5CF8068E0CF80914A0160913E017C
:100C5000813021F46E3F31F460934A018AE291E0E1
:100C6000B9DE13C06A3FD1F7909148019230A1F7E5
:100C70009091470180934A01909346011092470159
:100C80008093480183E080934901109240011092C3
:100C90003F0110923E01CBCF809149018111C7CF16
:100CA00080914001883041F160F0893061F18A30F3
:100CB00009F0BDCF8AE291E0FF90EF90DF90CF90F6
:100CC000B0CB8091460180FF14C0BD98C59A909129
:100CD000460180913F01890F80933F018091460139
:100CE00090E09595879580934601809140018F5FB4
:100CF000A6CFC598BD9AEBCF80913F0180FF03C07E
:100D0000C598BD9AF2CFBD98C59AEFCFCF93DF9328
:100D1000C0912C01D0912D0155DECD1BCF70C8178D
:100D2000E0F08AE291E0D3DB83FF17C0982F907C3C
:100D3000C1E059F4E1D9C1E045DEC817A0F48AE268
:100D400091E0C5DBD9D9CF5FF7CF3CDEC81728F4D7
:100D50008AE291E0BCDBCF5FF8CF80E0CDD980E0C4
:100D6000DF91CF91089581E0FBCFCF9380910F0168
:100D7000813309F457C0C0F4883109F44BC050F4F2
:100D8000883009F440C0893009F441C08730A1F4AB
:100D90008DDC12C0823209F440C0803309F440C0B7
:100DA000813251F4B3DF08C0833429F158F481341F
:100DB000D1F038F58233C1F18091600080930F014A
:100DC000CF910895813991F1833909F43AC08E3871
:100DD00099F7E0E0FEE1E4918FEFEA38B1F4E1E069
:100DE000FEE1849112C062DC8111E6CF1092A30172
:100DF0001092C501E1CF5ADCC82F88DFCC23A1F3C4
:100E0000DBCF84DFF1CF80910E0176D9D5CF8091F1
:100E10000D01FBCF80917601F8CF80916200F5CF74
:100E20008FE2F3CF82E0F1CF84E0EFCFE0910B01CE
:100E3000F0910C01CF01019690930C0180930B016E
:100E4000D0CF80911201E1CFFC011382128212A255
:100E500013A211A216A215A20895E7E3F0E0A8E3F9
:100E6000B0E0883020F4EAE3F0E0ABE3B0E0282F14
:100E7000277081E090E001C0880F2A95EAF72FB72C
:100E8000F8943C91982F909593239C939081892B73
:100E900080832FBF0895E9E3F0E0883010F0E6E3A7
:100EA000F0E09081877021E030E001C0220F8A9548
:100EB000EAF7922381E009F480E0089521E030E030
:100EC000A90102C0440F551F8A95E2F7CA012FB746
:100ED000F8949BB3611105C0809589238BBB2FBF0C
:100EE0000895892BFBCFEAE3F0E0ABE3B0E0883074
:100EF00020F0E7E3F0E0A8E3B0E0282F277081E0DE
:100F000090E001C0880F2A95EAF72FB7F894611195
:100F100009C090818095982390839C9189238C931C
:100F20002FBF0895623041F43081982F909593231C
:100F300090839C91892BF3CF9081892B8083F0CF74
:100F4000F8DCDE988FEC97E00197F1F700C0000025
:100F5000DD9A86E591E0A7DA109276018AE291E0C7
:100F60008EDA10924A011092A2019FEF24E38CE0E6
:100F7000915020408040E1F700C00000D6CCD9DC81
:100F8000DD9886E591E08FDA109276018AE291E0B1
:100F900076DA10924A018FB7F89440911A01509175
:100FA0001B0160911C0170911D018FBF80E090E0DA
:100FB000DC01CB9910C02FB7F89480911A01909161
:100FC0001B01A0911C01B0911D012FBF841B950B2B
:100FD000A60BB70BEECF0197A109B1098E3E924047
:100FE000A105B10510F0ACDFA0CC81E480936000D6
:100FF0008FEF94E32CE0815090402040E1F700C057
:10100000000081E08093A201EFCF10920D0180914A
:10101000540190915501892B31F080911401816028
:101020008093140166CA8091A201811101C0A7CFEB
:1010300087CFEBDF81E080930D0108958091A201BD
:10104000882389F08091540190915501892B59F49E
:10105000D9982FEF82E597E0215080409040E1F74A
:1010600000C00000D99A089510920D01809154019A
:1010700090915501892B31F0809114018260809309
:10108000140137CA8091A2018823E9F052DC2FEFC6
:1010900084E39CE0215080409040E1F700C00000D4
:1010A00044DCDE9886E591E0CFDE8AE291E0E7D984
:1010B00010924A0180E58093510180E180935301B1
:1010C00081E48093600008951F920F920FB60F92F3
:1010D00011242F933F938F939F93AF93BF9380914E
:1010E0001A0190911B01A0911C01B0911D0130913A
:1010F000190126E0230F2D3768F129E8230F039605
:10110000A11DB11D2093190180931A0190931B0119
:10111000A0931C01B0931D018091150190911601BF
:10112000A0911701B09118010196A11DB11D8093E6
:10113000150190931601A0931701B0931801BF9168
:10114000AF919F918F913F912F910F900FBE0F9074
:101150001F9018950296A11DB11DD4CF1F920F921A
:101160000FB60F9211242F933F934F935F936F937A
:101170007F938F939F93AF93BF93EF93FF93809150
:10118000260190912701892B29F0E0912601F09109
:1011900027010995FF91EF91BF91AF919F918F9199
:1011A0007F916F915F914F913F912F910F900FBE63
:1011B0000F901F9018951F920F920FB60F92112447
:1011C0002F933F934F935F936F937F938F939F934F
:1011D000AF93BF93EF93FF938091240190912501EA
:1011E000892B29F0E0912401F09125010995FF91C7
:1011F000EF91BF91AF919F918F917F916F915F918F
:101200004F913F912F910F900FBE0F901F90189507
:101210001F920F920FB60F9211248F9315BC1EBC14
:10122000809175018823E9F080917501833069F41C
:10123000DA98D29AC398BB9A81E080937101809129
:1012400075018150809375010CC0809175018130CA
:10125000B1F7D298DA9A1092750110926C0110923F
:101260006B01809149018823E9F080914901833025
:1012700069F4C698BE9AC598BD9A81E080934501ED
:10128000809149018150809349010CC080914901AE
:101290008130B1F7BE98C69A109249011092400170
:1012A00010923F018F910F900FBE0F901F901895D5
:1012B0001F920F920FB60F9211242F933F934F93CB
:1012C0005F936F937F938F939F93AF93BF93EF93AE
:1012D000FF9380911E01843009F46CC048F4813082
:1012E00039F1833009F460C0B89888EA8DB960C0DC
:1012F000873009F47AC0883009F47CC08630A1F7C1
:1013000087E080931E019091A3018091C5019817F9
:1013100008F068C0E091A301F0E0EC55FE4F808139
:101320008FB98091A3018F5F8093A301B89A40C0C9
:1013300080911F018823E1F08FB120911F0190E07F
:10134000959587952817190699F48FB18170809328
:10135000C6018091C6018823E9F1E0912201F09154
:101360002301309709F009958091C501811104C0CE
:1013700082E080931E01B8CF86E080931E011FB8E3
:10138000B89A8EE48EB9FF91EF91BF91AF919F9182
:101390008F917F916F915F914F913F912F910F901E
:1013A0000FBE0F901F90189584E080931E01B8988F
:1013B00080E4E8CF8091C501803270F4E091C501EE
:1013C000F0E08FB1EC55FE4F80838091C5018F5FB7
:1013D0008093C50183E0D1CF85E080931E018FEF1C
:1013E0008FB9CECF8FEF8FB9A1CF88E080931E0148
:1013F000B898C7CF789B84CF89E0BBCF1F920F925C
:101400000FB60F9211242F933F934F935F936F93D7
:101410007F938F939F93AF93BF93CF93EF93FF935C
:10142000B898C6B38C2F85708430D9F3E091200131
:10143000F0912101309759F08091C601811107C0C8
:101440008091C501882319F08091C50109951092FA
:10145000C5011092A301C2FD19C081E080931E0155
:1014600088EF8DB980EE8EB9FF91EF91CF91BF914A
:10147000AF919F918F917F916F915F914F913F912C
:101480002F910F900FBE0F901F90189510921E0174
:1014900088EAE7CF93E093BF789489B7826089BFE9
:1014A00090BF81E087BD86BD87E08FBD86E886B9A5
:1014B000F89410BE17BC16BC15BC1EBC19BC1CBCD5
:1014C00085E48FBD84E68DBD89B7806489BF78943B
:1014D00085E098E090939F0180939E0189E198E0D8
:1014E0009093A1018093A00184E398E090939701E9
:1014F0008093960190939901809398018EE198E0F2
:1015000090938F0180938E01D398DB98DD9AD59AC2
:10151000D69ADE980EDAD19AD99A82E480931F0186
:101520001092C60110921E011092A3011092C501E3
:1015300087B38A7F846087BB88B3856088BB88EA6D
:101540008DB980EE8EB986E693E090932101809369
:10155000200185EB96E090932301809322018FB7C1
:10156000F89427E932E030932701209326018FBFBA
:1015700085B78C7F826085BF8BB780688BBF8FB744
:10158000F89427EC35E030932501209324018FBF98
:1015900085B78C7F826085BF8BB780648BBFD1E0BD
:1015A00082EFD82E13E097E2C92ECFEF21E5B22EBD
:1015B00030E1E32E43EFF42E5CE3A52E02E061E37D
:1015C000962E74EF872EE3E37E2E8091A20188236E
:1015D00011F0CB9BB5DC8AE991E0AED982E991E0CC
:1015E000ABD98AE891E0A8D99091A201911169C084
:1015F00080915101882309F464C010922D0110924A
:101600002C0110925101109229019091A201911187
:1016100064C180915301882309F45FC186E591E09C
:1016200013DC1092850110925301109252018091A7
:101630008901882319F01092890182DC8091880148
:10164000882369F0109288017BDC2FEF89E698E10E
:10165000215080409040E1F700C0000090DC809174
:101660008701882319F010928701FEDC80918601A2
:10167000882319F010928601E1DC80917B01882398
:1016800019F0F2DC10927B0180917C01882319F023
:10169000D5DC10927C018091540190915501892BE9
:1016A00049F0809154019091550101979093550113
:1016B000809354018FE19EE40197F1F700C0000090
:1016C00084CF80915101863209F4BDC078F5813113
:1016D00009F47DC0B0F4882309F45CC0803109F4BA
:1016E00061C090912C0180912D01981709F443C09D
:1016F0008AE291E0ECD68A3FF1F5809151018F5F4B
:101700005DC0823209F483C0843209F48FC0803214
:1017100041F7D0934A01F092460188EC809347014B
:10172000009348011093490181E248C0843309F1D4
:10173000B8F4803309F496C0823309F4A0C088322B
:1017400081F690912C0180912D019817A1F0809144
:1017500062008AE291E0BBD68093620080E334C0ED
:10176000803509F499C0813509F4A3C0803409F0AB
:10177000B8CF1092290180912901882309F445CF1F
:10178000815080932901811140CF8091280180935D
:1017900051013BCF992379F3E092510180E5809389
:1017A00028015DC090912C0180912D01981719F3AB
:1017B0008AE291E08CD68A3A21F481E1809351014A
:1017C0004EC08C3FC1F680E480935101D2CF9091FE
:1017D0002C0180912D01981771F28AE291E077D661
:1017E0008093620080916200882329F08CEF8093BF
:1017F000620080E5E3CF80916100833031F0809119
:101800006100843011F080E3D9CF80E2D7CF80919E
:101810006200D0934A01F092460188EC8093470120
:10182000009348011093490183E2C8CFD0934A0145
:10183000F092460180E580934701009348011093A0
:10184000490185E2BBCFD0934A01D0924601109264
:101850004701D093480110934901C0925101C093B0
:10186000290189CFD0934A01F0924601A092470105
:10187000009348011093490190925101F0CFD09309
:101880004A018092460110924701D093480110937B
:10189000490170925101E3CFD0934A01C0934601B0
:1018A00010924701D093480110934901B092510121
:1018B00076CF90912C0180912D01981709F45BCF80
:1018C0008AE291E004D68A3F09F055CFE0925101B7
:1018D00010922D0110922C01C2CF809153018230C1
:1018E000D1F198F4882311F1813029F180915201CE
:1018F000882309F49CCE815080935201811197CEA8
:10190000809163008093530192CE803191F18131B7
:1019100009F442C0833051F7809176018A3F31F754
:1019200084E08093530110925201E0CF9923F1F2A9
:10193000D093530106C0809185018A3A29F400931F
:101940005301C0935201D2CF809185018C3F71F633
:10195000E0925301F6CFD09376019DEE9093720101
:101960008093730180937401109375011093530158
:10197000E8CF86E591E068DA10928501D093760190
:10198000C093720110927301D0937401109375018A
:1019900081E180935301D5CF809176018A3F09F090
:1019A000A5CFC6CFCF93DF93EAE9F1E0128211828F
:1019B0001382158214821782168284E08083D49861
:1019C000DC9AE2E9F1E0128211821382158214821C
:1019D000178216828CE08083BC98C49AEAE8F1E012
:1019E000128211821382158214821782168287E076
:1019F0008083D798DF9AC6E5D1E085EF90E09983A0
:101A000088831A821B821C8A1D8A1E8A1F8A188E4E
:101A1000198E1A8E1B8E1E8E1F8E18A2CE0143D5D4
:101A200081E091E09983888319A21AA21BA21CA2CB
:101A30001DA21EA288E0E4E6F0E0ADE7B1E001906F
:101A40000D928A95E1F71FA6CAE2D1E08DED90E0F4
:101A5000998388831A821B821C8A1D8A1E8A1F8A88
:101A6000188E198E1A8E1B8E1E8E1F8E18A2CE01F6
:101A700006D589EE90E0998388831DA28FEF8EA30F
:101A8000DF91CF910895EE0FFF1F0590F491E02DA7
:061A90000994F894FFCF59
:101A96004104FC103C2C3A393E403B3F3E0000409E
:101AA6007E0000000000000000003B000000000077
:101AB60000003F00000000000000410000000000A0
:101AC6000000000000000000000000000000000010
:101AD60000000000005F00000000000000000000A1
:101AE60000000000006C0000000000000000000084
:101AF6000000000051004F500000004B4C540059AC
:101B0600530000000056007C5500000000110267DB
:101B1600020D020C0200000000110267020702EA31
:101B26000400000000240267020D020C02000000FF
:0A1B360000370267022407BC00001C
:00000001FF
